:020000040800F2
:100000005006002001010008910D00087D0B00083A
:100010008D0D00087B06000883200008000000000A
:10002000000000000000000000000000C5110008F2
:1000300021080008000000003510000869130008BE
:100040001B0100081B0100081B0100081B01000820
:100050001B0100081B0100081B0100081B01000810
:100060001B0100081B0100081B0100081B01000800
:100070001B0100081B0100081B0100081B010008F0
:100080001B0100081B0100081B0100081B010008E0
:100090001B0100081B0100081B0100081B010008D0
:1000A0001B0100081B0100081B0100081B010008C0
:1000B000D51600081B0100081B0100081B010008E1
:1000C0001B0100081B0100081B0100081B010008A0
:1000D0001B010008F51D00081B0100081B0100089A
:1000E0001B0100081B0100081B010008DFF80CD0F1
:1000F00000F060F900480047352100085006002054
:100100000648804706480047FEE7FEE7FEE7FEE7B1
:10011000FEE7FEE7FEE7FEE7FEE7FEE76D130008F9
:10012000ED00000840EA01039B0703D009E008C97D
:10013000121F08C0042AFAD203E011F8013B00F8AC
:10014000013B521EF9D27047F0B480EA0102D40F8D
:100150004200B2EB410F02D20246084611464A0065
:1001600042D0C30DDDB2C1F3C752AD1A202D35DA2E
:10017000C1F3160141F4000204B15242C5F1200658
:1001800002FA06F12A411044B3EBD05F23D0C4B188
:10019000012DA0EBC35009DCF0BC4FF0004202EA95
:1001A000C352DBB200F5000000F0D5B8400000F10A
:1001B000807000EBC350A0F1807040EAD17049001C
:1001C00009E0490841EAC071A0EBC35000F5000006
:1001D000400800EBC350F0BC00F0B4B8614201220B
:1001E00002EB4101001BF6E7F0BC704781F00041D3
:1001F000AAE780F00040A7E780EA010210B502F00C
:100200000043400022D04A001FD0010E01EB1261D2
:10021000C0F35600C2F3560240F4000042F400025C
:10022000A0FB022000047F39140400D0401C50EAD7
:10023000124001D44000491EC2B20C0604EBD0109B
:10024000401C4008802A02D003E0002010BD20F0AE
:100250000100002900DA0020184310BD30B480EA04
:10026000010202F0004530F0004221F0004013D0BE
:1002700090B1C30DD40DC2F31601C0F31600E41AF9
:1002800041F4000140F400027D34914201D3641C2A
:1002900000E04900002C02DA30BC002070474FF427
:1002A00000000023914201D3891A034340084FEA1A
:1002B0004101F7D151B1914202D14FF0004105E027
:1002C00002D24FF0010101E06FF0010103EBC450D5
:1002D000284430BC00F036B8C10F80EAE070084412
:1002E000CA079623002100F036B896230022114653
:1002F00000F031B820F00040C10DC0F3160040F40A
:1003000000007F2901DA00207047962903DCC1F143
:100310009601C8407047963988407047002801DB35
:10032000C0F10040002901DBC1F10041814270476A
:10033000002801DBC0F10040002901DBC1F10041D0
:10034000884270470029A8BF7047401C490008BF79
:1003500020F00100704710B4B0FA80FC00FA0CF0F5
:1003600050EA010404BF10BC704749B1CCF120042D
:1003700021FA04F411FA0CF118BF012121430843BA
:10038000A3EB0C01CB1D4FEA00614FEA102042BFE6
:10039000002010BC704700EBC35010440029A4BFDC
:1003A00010BC7047401C490008BF20F0010010BC81
:1003B00070470000064C074D06E0E06840F001037E
:1003C00094E8070098471034AC42F6D3FFF792FE4A
:1003D000002600082026000800B591B001214FF446
:1003E000017000F065FE0121084600F031FE4FF477
:1003F000004000F021FE0620ADF8000000208DF83E
:10040000030069462F4800F042FA2F4800F044F9F3
:100410002E4806902E480790002008900220099050
:1004200000200A9080200B90C0000D9080100C904E
:1004300020200E9000020F900020109006A9224864
:1004400000F0D0F90121204800F019F901211F48DE
:100450004C3800F04AF81D484C3800F051F80020A4
:10046000019001208DF808008DF809004FF46020FC
:1004700003900020049002208DF8140001A9134875
:100480004C3800F06BF80323012211460F484C381A
:1004900000F08CF80323022211460C484C3800F07F
:1004A00085F8012109484C3800F014F8012107486B
:1004B0004C3800F01AF8012104484C3800F0D2F80A
:1004C00011B000BD00080140080002404C2401406A
:1004D0005000002021B1826842F00102826003E0F6
:1004E000826822F001028260704721B1826842F482
:1004F0008072826003E0826822F4807282607047BA
:1005000010B504461248844208D10121401500F07C
:10051000DFFD0021601500F0DBFD17E00D4884428F
:1005200008D10121001500F0D3FD0021201500F0B5
:10053000CFFD0BE00848844208D10121C80300F038
:10054000C7FD00214FF4004000F0C2FD10BD0000C7
:100550000024014000280140003C014030B5024623
:100560000020002350680F4C20400D790C6844EAAD
:1005700005242043506090680B4C2040D1E9025480
:100580002C434D7944EA450420439060D06A20F41E
:1005900070000C7C641EE4B2234340EA0350D06236
:1005A00030BD0000FFFEF0FFFDF7F1FFF0B504469F
:1005B0000D4600200021092D11DDE068A5F10A0695
:1005C00006EB4607072606FA07F18843A5F10A0657
:1005D00006EB460603FA06F10843E0600CE02069EA
:1005E00005EB4507072606FA07F1884305EB4506A4
:1005F00003FA06F108432061072A0FDA606B561EE2
:1006000006EB86071F2606FA07F18843561E06EBFF
:10061000860605FA06F10843606322E00D2A0FDA28
:10062000206BD61F06EB86071F2606FA07F18843C4
:10063000D61F06EB860605FA06F10843206310E094
:10064000E06AA2F10D0606EB86071F2606FA07F1FF
:100650008843A2F10D0606EB860605FA06F108436B
:10066000E062F0BD21B1826842F4A002826003E042
:10067000826822F4A0028260704700BFFEE721B1C9
:10068000026842F00102026004E002684FF6FE7365
:100690001A4002607047000001684FF6FE72114078
:1006A00001600021016041608160C1604B49884266
:1006B00008D14A490839496841F00F01474A083AC8
:1006C00051608AE045491431884208D143490839CC
:1006D000496841F0F001414A083A51607DE03F49E4
:1006E0002831884208D13D490839496841F4706190
:1006F0003A4A083A516070E038493C31884208D1A2
:1007000036490839496841F47041344A083A516021
:1007100063E032495031884208D13049083949688C
:1007200041F470212D4A083A516056E02B4964315A
:10073000884208D129490839496841F47001274A9B
:10074000083A516049E025497831884208D1234967
:100750000839496841F07061204A083A51603CE02C
:100760001F49884206D1011F096841F00F01021F8D
:10077000116032E01A491431884208D11849091F22
:10078000096841F0F001164A121F116025E0144972
:100790002831884208D11249091F096841F4706163
:1007A0000F4A121F116018E00D493C31884208D1F0
:1007B0000B49091F096841F47041094A121F116071
:1007C0000BE007495031884207D10549091F0968E4
:1007D00041F47021024A121F116070470800024064
:1007E0000804024010B50022026847F6F0739A43ED
:1007F0000C6A8B6823430C6923434C6923438C693F
:100800002343CC6923434C6A23438C6A23431A4312
:100810000260CB6843600B6883604B68C36010BDA7
:100820007047000070B505460C46A20029460C48EA
:10083000FFF778FC00200A4A02F824000021A000FB
:10084000401C11548021A000801C11547F21A00065
:10085000C01C1154A000011D104601F00FFB70BD1B
:1008600054010020024682B1012A0ED0501E884257
:1008700001DA02207047501E884201D10020F9E7BA
:10088000501E884201DD0120F4E70020F2E72DE947
:10089000F041024600250026002000230024002706
:1008A00091F803C00CF00F0591F803C00CF0100C88
:1008B000BCF1000F03D091F802C04CEA050591F895
:1008C00000C0BCF1000F31D0146800202BE04FF0C5
:1008D000010C0CFA00F3B1F800C00CEA03069E42CA
:1008E00020D183004FF00F0C0CFA03F7BC4305FA3C
:1008F00003FC4CEA040491F803C0BCF1280F06D1B4
:100900004FF0010C0CFA00FCC2F814C00AE091F898
:1009100003C0BCF1480F05D14FF0010C0CFA00FCEC
:10092000C2F810C0401C0828D1D31460B1F800C030
:10093000BCF1FF0F34DD546800202EE000F1080CFC
:100940004FF0010808FA0CF3B1F800C00CEA0306F6
:100950009E4221D183004FF00F0C0CFA03F7BC43E9
:1009600005FA03FC4CEA040491F803C0BCF1280F1B
:1009700005D100F1080C08FA0CF8C2F8148091F8BF
:1009800003C0BCF1480F07D100F1080C4FF001087B
:1009900008FA0CF8C2F81080401C0828CED3546026
:1009A000BDE8F081F0B50A460023002400210025AF
:1009B00000F00046B6F1004F02D11D4EF16901E092
:1009C0001B4E7168C0F3034583B200F44016B6F5C0
:1009D000401F08D121F07061154E766826F07066D0
:1009E000134F7E6012E000F48016B6F5801F06D12A
:1009F000032606FA05F4A14341F0706106E0460DB6
:100A0000360103FA06F6B14341F0706122B1460D9A
:100A1000360103FA06F6314300F00046B6F1004F06
:100A200002D1034EF16101E0014E7160F0BD0000A2
:100A3000000001400246002093680B400BB10120EA
:100A400000E00020704701617047000070B5144855
:100A500001681448FFF7D0FB054613490888FFF7E3
:100A600044FC06461149FFF7C7FB04462946FFF739
:100A70006BFB0B4908600C494888FFF736FC0646BB
:100A80000B49FFF7B3FB05460A49FFF7B5FB0446E0
:100A90000949FFF7B1FB094908600148006870BDCA
:100AA00054000020A4707D3F5000002070390737AB
:100AB00000300E45000080BF55A4C23B4800002016
:100AC00070B529480068401C27490860084600683E
:100AD0000A21B0FBF1F201FB12002349086008462D
:100AE0000068D0B921480088A0F500402049214A7B
:100AF000126841F822001F480068401C1D49086028
:100B0000084600680A2190FBF1F201FB1200194926
:100B100008604FF400401549088015490968144AD7
:100B200052681144124A92681144114AD268114421
:100B30000F4A126911440E4A526911440C4A9269D3
:100B400011440B4AD2691144094A126A1144084AF5
:100B5000526A8818FFF7C0FB05460749FFF74CFBB0
:100B60000446204670BD00005800002024040040C8
:100B70002C0100205C0000200000164100BFFEE7B1
:100B800008B50121042000F093FA41F23900ADF8D4
:100B9000000048208DF8030069460248FFF777FE01
:100BA00008BD00000008014010B5044614B1012042
:100BB0003649087035480078002843D04FF48051FA
:100BC0003348FFF737FF98B120213148FFF732FF54
:100BD00070B110212E48FFF72DFF48B108212C4895
:100BE000FFF728FF20B101212948FFF723FF48BB69
:100BF0000A2001F079FA0020244908704FF480514E
:100C00002348FFF717FF08B9012010BD2021204815
:100C1000FFF710FF08B90220F7E710211C48FFF783
:100C200009FF08B90320F0E708211948FFF702FF80
:100C300008B90420E9E701211548FFF7FBFE10BBC6
:100C40000520E2E74FF480511148FFF7F3FE012839
:100C500019D120210E48FFF7EDFE012813D11021F4
:100C60000B48FFF7E7FE01280DD108210848FFF7E0
:100C7000E1FE012807D101210548FFF7DBFE01282D
:100C800001D1024908700020BFE700006000002089
:100C90000008014008B50121042000F009FA4FF4D2
:100CA0000060ADF8000010208DF8030003208DF8DF
:100CB000020069460448FFF7EAFD4FF4006102486C
:100CC000FFF7C1FE08BD00000008014008B5012182
:100CD000082000F0EDF90220ADF8000048208DF862
:100CE000030003208DF8020069461048FFF7CFFD8E
:100CF0004FF48060ADF8000048208DF80300032019
:100D00008DF8020069460948FFF7C1FD4FF4805095
:100D1000ADF8000048208DF8030003208DF8020094
:100D200069460248FFF7B3FD08BD0000000C014012
:100D300010B502211248FFF77DFE012805D10020E1
:100D4000104908600220104908604FF480610C4887
:100D5000FFF770FE012805D100200A490860032032
:100D6000094908604FF480510548FFF763FE0128E8
:100D700005D100200349086004200349086010BD24
:100D8000000C0140400000202C00002000BFFEE7C6
:100D90007047000070B5002100230F22C47804B30F
:100DA000154C246804F4E064C4F5E064210AC1F140
:100DB0000403CA40447804FA03F1847814402143C0
:100DC00009010E4C0678A155047804F01F05012492
:100DD000AC4005786D11AD0005F1E025C5F8004186
:100DE00009E0047804F01F050124AC40044D0678A6
:100DF000761145F8264070BD0CED00E000E400E0FF
:100E000080E100E02DE9FC5F04460E463146206893
:100E1000FFF7ECF9054628466169FFF7E7F900900E
:100E2000E16AFFF7E3F98346A16AFFF78DF982468D
:100E3000D4E90301FFF712FA51460190FFF7DCF9FC
:100E400080462946A068FFF7D7F90190A169FFF70E
:100E5000D3F982462846E16AFFF7C8F90190616834
:100E6000FFF7CAF983465146FFF76EF981464146BE
:100E7000FFF76AF90746E169FFF766F9E061E562A5
:100E80006069A06228466169FFF7B0F980464FF0BB
:100E90007E502169FFF7E2F981464146FFF7ACF940
:100EA00007466169FFF750F96061D4E90701FFF770
:100EB0003FFA01D8206AE061616AE069FFF72EFA23
:100EC00001D8606AE061E069BDE8FC9F00224261F0
:100ED0008262C262C16170472DE9F04106AC94E8BC
:100EE000F01041608260C36004614FF00008C0F8F8
:100EF0001480856107624662C0F82880C0F82C80A3
:100F0000C0F81CC0BDE8F08110B50D490D4800685F
:100F1000FFF76CF904460C49FFF76EF90B490860BE
:100F20000B4801680948FFF76DFF0A4908600A4845
:100F300001680848FFF766FF0849086010BD000017
:100F40003333D33F3C00002000004842A000002083
:100F500044000020700000203800002040000020E5
:100F600000200149086070474000002010B50E497C
:100F70000E480068FFF73AF904460D49FFF73CF9BF
:100F80000C4908600C4801680A48FFF73BFF0B4911
:100F900008600B4801680948FFF734FF80F0004003
:100FA0000849086010BD00003333D33F3C000020E7
:100FB00000004842A00000204400002070000020F3
:100FC00038000020400000202DE9F04104464FF099
:100FD0007C512046FFF710F980464FF07C51FFF717
:100FE000B3F807461149FFF707F90646FFF782F9FC
:100FF00085B229460E4800F06EFE4FF07C51204627
:10100000FFF7FAF880464FF07C51FFF79DF807464E
:101010000649FFF7F1F80646FFF76CF985B2294655
:10102000034800F05AFEBDE8F08100000000614571
:10103000002C01407047000001460020034A506820
:1010400020F4404008435060704700000010024008
:1010500029B1064A52690243044B5A6104E0034A2B
:1010600052698243014B5A617047000000100240F0
:1010700029B1064AD2690243044BDA6104E0034A0B
:10108000D2698243014BDA617047000000100240D0
:1010900029B1064A12690243044B1A6104E0034A6B
:1010A00012698243014B1A61704700000010024030
:1010B00029B1064A92690243044B9A6104E0034A4B
:1010C00092698243014B9A61704700000010024010
:1010D00029B1064AD2680243044BDA6004E0034AAD
:1010E000D2688243014BDA60704700000010024072
:1010F00030B500210022002400232D4D6D6805F03D
:101100000C0121B1042905D0082923D105E0294D7E
:10111000056022E0274D05601FE0254D6D6805F450
:101120007012234D6D6805F48034022505EB924260
:101130001CB9214D554305600BE01D4D6D6805F44C
:1011400000351DB11C4D5543056002E0194D554356
:10115000056002E0174D056000BF00BF144D6D68CB
:1011600005F0F0010909154D6B5C0568DD4045602F
:101170000F4D6D6805F4E061090A104D6B5C456820
:10118000DD4085600A4D6D6805F46051C90A0B4D5C
:101190006B5C4568DD40C560054D6D6805F44041F8
:1011A000890B074D6B5CC568B5FBF3F5056130BD78
:1011B0000010024000127A0000093D0014000020D7
:1011C00024000020704710B500F002F810BD0000A8
:1011D0000CB50020019000903348006840F4803046
:1011E0003149086000BF3048006800F400300090CA
:1011F0000198401C0190009818B90198B0F5A06FB3
:10120000F1D12948006800F4003010B101200090AD
:1012100001E0002000900098012843D12348006895
:1012200040F01000214908600846006820F00300E3
:1012300008600846006840F0020008601A484068EC
:10124000194948600846406848600846406840F4CC
:10125000806048600846406820F47C10486008467A
:10126000406840F4E81048600846006840F080702C
:10127000086000BF0C48006800F000700028F9D03A
:101280000948406820F00300074948600846406864
:1012900040F00200486000BF0348406800F00C00C6
:1012A0000828F9D10CBD00000010024000200240C7
:1012B00010B50A490A480068FEF798FF0446094934
:1012C000FEF79AFF08490860084801680648FFF7DA
:1012D00099FD80F000400649086010BD3333D33FCC
:1012E0003C00002000105545700000203800002010
:1012F00040000020002001490860704740000020A5
:1013000010B5094909480068FEF770FF044608490E
:10131000FEF772FF07490860074801680548FFF7B4
:1013200071FD0649086010BD3333D33F3C000020F7
:1013300000105545700000203800002040000020BB
:10134000042808D14FF0E021096941F004014FF071
:10135000E022116107E04FF0E021096921F004016A
:101360004FF0E022116170477047000010B513483C
:10137000006840F0010011490860084640681049C3
:1013800008400E494860084600680E4908400B496D
:1013900008600846006820F480200860084640681D
:1013A00020F4FE0048604FF41F008860FFF70BFF39
:1013B0004FF000600449086010BD000000100240BA
:1013C0000000FFF8FFFFF6FE08ED00E0F0B50C4668
:1013D000154600220021068C4FF6FE773E4006841B
:1013E000028B018C4FF60C7632407E1C06EA031607
:1013F0002E433243104EB0420ED0104EB0420BD0AE
:10140000B0F1804F08D00E4EB04205D00D4EB04224
:1014100002D00D4EB04206D14FF6FD76314044F079
:101420000106314305E04FF6F576314044F0010600
:10143000314302830184F0BD002C0140003401409F
:101440000004004000080040000C0040F0B50C46CD
:101450001546002200210026078C4FF6EF7C07EA94
:101460000C070784028B018C4FF6FF7707EA0416FE
:1014700040F6FF473A404FF6FF7707EA03373A4313
:101480004FF6FF7707EA05273A43114FB8420ED0CF
:10149000104FB8420BD0B0F1804F08D00E4FB84279
:1014A00005D00E4FB84202D00D4FB84206D14FF6CC
:1014B000DF77394046F01007394305E04FF65F7794
:1014C000394044F01007394302830184F0BD000025
:1014D000002C01400034014000040040000800409E
:1014E000000C0040F0B50C461546002200210026F5
:1014F000078C4FF6FF6C07EA0C070784828B018C80
:101500004FF6FF7707EA04264FF60C773A404FF67E
:10151000FF7707EA03172F433A43114FB8420ED023
:10152000104FB8420BD0B0F1804F08D00E4FB842E8
:1015300005D00E4FB84202D00D4FB84206D14FF63B
:10154000FF57394046F48077394305E04FF2FF57A3
:10155000394044F48077394382830184F0BD000030
:10156000002C01400034014000040040000800400D
:10157000000C0040F0B50C46154600220021002664
:10158000078C4EF6FF7C07EA0C070784828B018CE0
:101590004FF6FF7707EA043640F6FF473A404FF62A
:1015A000FF7707EA05273A434FF6FF7707EA033745
:1015B0003A43114FB8420ED0104FB8420BD0B0F1A1
:1015C000804F08D00E4FB84205D00E4FB84202D01F
:1015D0000D4FB84206D14DF6FF77394046F480579B
:1015E000394305E047F6FF57394044F48057394303
:1015F00082830184F0BD0000002C014000340140D2
:101600000004004000080040000C004030B589B0E4
:1016100004460D460121C802FFF74AFD01210420BE
:10162000FFF746FD4FF44070ADF8200018208DF80C
:10163000230003208DF8220008A92448FFF727F98A
:10164000ADF81840ADF814500020ADF81A00ADF810
:10165000160005A91E4800F071FB6020ADF80400DB
:101660000120ADF80600204604EBD071C1F34F0114
:10167000ADF80A100020ADF80C0001A9144800F0E4
:1016800075FA7020ADF804000120ADF806000020C6
:10169000ADF80A00ADF80C0001A90D4800F0BCFA45
:1016A00001210B4800F0C5F80821094800F0AAFA0A
:1016B0000821074800F002FB0121054800F09EF8D0
:1016C0000121034800F0A9F809B030BD000801402D
:1016D000002C014010B50121880700F0CEF928B197
:1016E00000F05EFE0121880700F094F810BD7FB580
:1016F00005460C4601210846FFF7BAFCADF8085034
:10170000ADF804400020ADF80A00ADF8060001A9CC
:101710004FF0804000F012FB01221146900700F0CC
:101720001CFA1C208DF8000000208DF801008DF8B7
:10173000020001208DF803006846FFF72BFB012112
:10174000880700F06AF87FBD00B587B0012104204A
:10175000FFF7AEFC4020ADF8180004208DF81B0008
:1017600003208DF81A0006A92248FFF790F8802080
:10177000ADF8180004208DF81B0003208DF81A0026
:1017800006A91C48FFF783F801210220FFF770FC2F
:10179000194800F05DF803A800F022FB0020ADF826
:1017A0000C004FF6FF70ADF810000020ADF81200ED
:1017B000ADF80E0003A9104800F0C0FA00231A4645
:1017C00003210D4800F038F9684600F0BDF900200B
:1017D000ADF808006946084800F060F94FF4004190
:1017E000054800F07CFA0121034800F016F807B024
:1017F00000BD0000000801400004004021B1028843
:1018000042F08002028004E002884FF67F731A40A3
:1018100002807047CA430282704721B1028842F0B9
:101820000102028004E002884FF6FE731A40028033
:10183000704731B1B0F8442042F40042A0F844208F
:1018400005E0B0F84420C2F30E02A0F8442070472F
:1018500010B504466848844208D10121C014FFF73E
:1018600037FC0021E014FFF733FCC4E0B4F1804FF3
:1018700008D101210846FFF70BFC00210120FFF7EA
:1018800007FCB8E05D48844208D101210220FFF73F
:10189000FFFB00210220FFF7FBFBACE0584884422D
:1018A00008D101210420FFF7F3FB00210420FFF7FA
:1018B000EFFBA0E05348844208D101210820FFF744
:1018C000E7FB00210820FFF7E3FB94E04E48844249
:1018D00008D101211020FFF7DBFB00211020FFF7CA
:1018E000D7FB88E04948844208D101212020FFF736
:1018F000CFFB00212020FFF7CBFB7CE04448844253
:1019000008D101214014FFF7E3FB00216014FFF729
:10191000DFFB70E03F48844209D10121C804FFF792
:10192000D7FB00214FF40020FFF7D2FB63E03A48D9
:10193000844209D101210805FFF7CAFB00214FF4B9
:101940008010FFF7C5FB56E03448844209D10121DD
:101950004805FFF7BDFB00214FF40010FFF7B8FB6F
:1019600049E02F48844208D101214020FFF790FB35
:1019700000214020FFF78CFB3DE02A48844208D13B
:1019800001218020FFF784FB00218020FFF780FBEE
:1019900031E02548844208D101218015FFF778FB0A
:1019A0000021A015FFF774FB25E02048844209D1EF
:1019B00001210804FFF78CFB00214FF48030FFF772
:1019C00087FB18E01A48844209D101214804FFF737
:1019D0007FFB00214FF40030FFF77AFB0BE0154846
:1019E000844208D101218804FFF772FB00214FF4E3
:1019F0008020FFF76DFB10BD002C0140000400406B
:101A000000080040000C004000100040001400409E
:101A100000340140004C014000500140005401409E
:101A200000180040001C0040002000400040014021
:101A30000044014000480140F0B50C4615461E46E2
:101A40000021002200230189028B038C4FF6F877D6
:101A5000394021434FF6FC473A4040F201173A43E0
:101A60004FF6DD773B404FF6FF7707EA06172F4327
:101A70003B43018102830384F0BD30B50246002060
:101A800000230024158A05EA0103958905EA01046B
:101A900013B10CB1012000E0002030BD70B5054647
:101AA0000C46244885420ED0234885420BD0B5F120
:101AB000804F08D02148854205D02148854202D078
:101AC0002048854200D100E000BF208850B923891A
:101AD000A28861882846FFF779FCE188284600F053
:101AE00000F925E0208804280AD12389A28861888A
:101AF0002846FFF7ABFCE188284600F0FBF817E02A
:101B0000208808280AD12389A28861882846FFF7FF
:101B1000E9FCE188284600F0FAF809E02389A28868
:101B200061882846FFF726FDE188284600F0F8F88E
:101B300070BD0000002C0140003401400004004052
:101B400000080040000C004000210180418001217C
:101B500081800021C180018170471AB183890B43C4
:101B6000838102E083898B438381704770B50024B1
:101B700000220023058C4FF6FE7635400584028C4A
:101B80008388048B4FF68F752C40B51E2C400D8832
:101B90002C43751E2A400D892A434D882A43144D33
:101BA000A8420BD0134DA84208D0134DA84205D02F
:101BB000124DA84202D0124DA84213D14FF6F7752C
:101BC0002A404D892A434FF6FB752A408D882A43C7
:101BD0004FF6FF652B404FF6FF552B408D892B4369
:101BE000CD892B4383800483CD888586028470BD94
:101BF000002C0140003401400040014000440140FD
:101C0000004801400A460021018B4FF6F773194046
:101C1000114301837047000070B5002400220023A7
:101C2000058C4FF6EF7635400584028C8388048B53
:101C300048F6FF752C404FF6FF452C400D884FF6B7
:101C4000FF7606EA05252C434FF6DF752A400D89FD
:101C500006EA05152A434D8806EA05152A43154D5F
:101C6000A84202D0144DA8421DD14FF67F752A40DC
:101C70004D894FF6FF7606EA05152A434FF6BF75E4
:101C80002A408D8806EA05152A434FF6FF352B407A
:101C90004FF2FF752B408D8906EA85052B43CD89D0
:101CA00006EA85052B4383800483CD88058702845B
:101CB00070BD0000002C0140003401400A460021A4
:101CC000018B4FF2FF7319404FF6FF7303EA0223B3
:101CD000194301837047818670470187704781846B
:101CE0007047028B4FF6F3731A400283028B0A434C
:101CF00002837047028B4FF2FF331A400283028B3C
:101D00004FF6FF7303EA01231A4302837047828B65
:101D10004FF6F3731A408283828B0A4382837047A3
:101D2000828B4FF2FF331A408283828B4FF6FF7310
:101D300003EA01231A4382837047000000220288CD
:101D40001D4B98420ED01D4B98420BD0B0F1804FE6
:101D500008D01B4B984205D01A4B984202D01A4B20
:101D6000984204D14FF68F731A404B881A43174B91
:101D7000984207D0164B984204D04FF6FF431A40C2
:101D8000CB881A4302808B8883850B8803850A4B96
:101D900098420BD0094B984208D00E4B984205D080
:101DA0000D4B984202D00D4B984201D10B7A03861D
:101DB0000123838270470000002C01400034014061
:101DC0000004004000080040000C004000100040EB
:101DD0000014004000400140004401400048014020
:101DE0004FF6FF71818000210180C1804180017226
:101DF0007047000010B540F225511D4800F080F8F2
:101E000010B31B4800F038F9C4B21A48008800F437
:101E10000040C8B91748008800F4804060B10A2C1F
:101E200003D000201349088020E01248008840F4C5
:101E300000401049088019E00D2C06D10D4800889B
:101E400040F480400B49088010E00A480088C0F345
:101E50000D0009490C5407480088401C05490880BA
:101E600008460088C72801DD0020088010BD00005A
:101E7000003801406C0000208601002070B5054646
:101E80000E46002440210C4800F018F800BF0FE077
:101E9000285D0949091D088000BF4021064800F05F
:101EA00022F80028F9D04021034800F007F8641C0C
:101EB000B442EDD370BD00000038014001F400725F
:101EC000B2F5007F00D100BFCA430280704721B144
:101ED000828942F40052828104E082894DF6FF73C8
:101EE0001A408281704702460020B1F5007F00D180
:101EF00000BF13880B400BB1012000E000207047A9
:101F000070B50246002400230025002040F66A1622
:101F1000B14200D100BFC1F3421501F01F030126F9
:101F200006FA03F3012D02D19689334006E0022D13
:101F300002D1168A334001E0968A33400C12012602
:101F400006FA04F41688344013B10CB1012000E005
:101F5000002070BDF0B503460024002600250020B7
:101F600040F66A17B94200D100BF1846C1F34214C7
:101F700001F01F06012707FA06F5012C01D10C30EC
:101F800004E0022C01D1103000E014301AB10768CF
:101F90002F43076002E00768AF430760F0BD000011
:101FA0002DE9F04786B005460E460024A24600BF44
:101FB000A1460027B08900B100BF2F462C8A4CF6FD
:101FC000FF700440F08804432C82AC894EF6F31075
:101FD0000440B08831890843718908430443AC81C7
:101FE000AC8A4FF6FF400440B0890443AC8201A89C
:101FF000FFF77EF81F48874202D1DDF810A001E00C
:10200000DDF80CA0A88900F4004040B10AEBCA003A
:1020100000EB0A1031684900B0FBF1F807E00AEB69
:10202000CA0000EB0A1031688900B0FBF1F86420A7
:10203000B8FBF0F004012009642101FB1089A88994
:1020400000F4004040B1322000EBC900B0FBF1F0D9
:1020500000F00700044308E0322000EB091064217F
:10206000B0FBF1F000F00F0004432C8106B0BDE896
:10207000F08700000038014001468888C0F308005E
:10208000704700BFFEE702E008C8121F08C1002A1F
:10209000FAD170477047002001E001C1121F002AE9
:1020A000FBD1704710B56FF00400FFF749F90A48FB
:1020B00000680A49B0FBF1F0094908700846007849
:1020C00000EB4001C1EBC0104FF6FF7101EAC00008
:1020D0000449088010BD00000000002000127A00B2
:1020E00062000020640000200146114A12884A4321
:1020F0004FF0E0235A6100229A611A46126942F0B9
:1021000001021A6100BF4FF0E022106900F00102E5
:102110001AB100F48032002AF5D04FF0E0221269A3
:1021200022F001024FF0E0231A6100229A61704709
:102130006400002086B0FFF7B5FF4FF4E13000F0F7
:1021400009FAFEF749F9FFF7FFFA00207D497E4AB8
:102150007E4BCDE90310CDE90132009003467C4A65
:102160007C497D48FEF7B8FE00207C497C4A774BCD
:10217000CDE90310CDE9013200900346794A7A494E
:102180007A48FEF7A9FE00207449754A6F4BCDE9E5
:102190000310CDE90132009003464FF07E52014614
:1021A0007348FEF799FE002140F60F60FFF72EFA04
:1021B0000A2141F61F40FFF79AFAFEF76BFDFEF782
:1021C000DFFCFEF783FD01206A490860B8E069483A
:1021D000016869480068FEF745FB04460120FFF7E7
:1021E00083FF66480068664908605B48006848608D
:1021F000624801685848FEF705FE614988606148F9
:102200000068C8606048006808616048006848610C
:1022100057480068886157480068FEF75DF85849DC
:10222000C86155490968481EFEF756F854490862C6
:102230002046FEF751F85249486255480078FEF7AB
:1022400054F84F4988620B214D48FEF7EBFA002005
:10225000FEF7AAFC4F49086008460068022801D131
:10226000454908604B480068032801D1424908608D
:1022700048480068042801D13F4908604548006883
:10228000052801D13C490860FEF752FD414800682D
:10229000012818D13E480078401C3D490870087854
:1022A000C11700EB91718910A0EB8101384A1170C0
:1022B00000212E48FEF70AFE00212748FEF706FE01
:1022C00000202E4908603248007818B901203249B0
:1022D00008602FE02E480078012803D100202E4905
:1022E000086027E02A480078022810D12B4800888F
:1022F000B0F5FA7F1EDB2848006808B9012000E02D
:1023000000202549086000202449088012E0204868
:10231000007803280ED12148008864280ADB1E4873
:10232000006808B9012000E000201B490860002077
:102330001A49088019480088401C1849088000BFC5
:1023400045E7000000409C4500409CC56F12833A61
:102350000000C84300007A44A000002048E17A3F12
:1023600048E17ABF9A99D940CDCC24417000002031
:10237000D00000202C000020340000204400002069
:10238000000100203800002040000020480000200C
:102390004C00002030000020AC0121424E00002003
:1023A00010B5FEF78DFB80F000405F4908605F4983
:1023B0005D480068FDF720FF04465D48016820463F
:1023C000FDF7C2FE5A490860FEF740FB5949086014
:1023D0005948007818B90020584908609EE05648CE
:1023E000007801280BD1564952480068FDF7FEFEDF
:1023F00004465449FDF700FF504908608EE04E48FE
:102400000078022844D15048016850480068FEF71F
:1024100029FA012802D1FEF773FF7FE04A480168DC
:102420004A480068FEF71EFA022826D1464800688E
:1024300002281FD14548006802281BD1FEF738FF4B
:1024400043480068401C424908600846006840F65E
:10245000E44190FBF1F201FB120000285ED1012063
:102460003B49086038490860002034490860324917
:10247000087053E0FEF71CFF50E033480168334812
:102480000068FEF7EFF9002848D1FEF733FF45E07A
:1024900029480078032841D12B4801682B4800685F
:1024A000FEF7E0F9012802D1FEF760FD36E026488C
:1024B000016826480068FEF7D5F9022825D1224890
:1024C000006802281ED12148006802281AD1FEF7B0
:1024D0001BFD1F480068401C1D4908600846006835
:1024E0004FF47A6190FBF1F201FB1200B0B90120C8
:1024F00017490860144908600020104908600E4917
:1025000008700BE0FEF700FD08E00F4801680F4877
:102510000068FEF7A7F908B9FEF722FD0748006832
:10252000FEF752FD10BD000038000020FE9CDB3895
:10253000440000203C0000204C000020400000200F
:102540003333D33FD1229B3E2C00002034000020A7
:102550002800002010B586B00446012144F208008E
:10256000FEF7A6FD01210846FEF7A2FD0121042089
:10257000FEF718FA4020ADF8140003208DF816007D
:1025800018208DF8170005A91B48FEF780F9802058
:10259000ADF8140004208DF8170005A91648FEF7C1
:1025A00076F925208DF8000003208DF801008DF8C4
:1025B000020001208DF803006846FEF7EBFB019452
:1025C0000020ADF80800ADF80A00ADF80C00ADF839
:1025D00010000C20ADF80E0001A90848FFF7E0FC40
:1025E000012240F225510548FFF7B4FC01210348C0
:1025F000FFF76DFC06B010BD000C01400038014033
:10260000202600080000002070000000862000083E
:102610009026000870000020E005000096200008C9
:1026200000A24A04000000000000000001020304B0
:102630000607080900000000010203040102030468
:102640000607080902040608010000000000000057
:102650000000000002000000000000000000000078
:10266000000000000000000000000000000000006A
:10267000000000000000000000000000000000005A
:102680000100000000000000000000000000000049
:04000005080000ED02
:00000001FF
