:020000040800F2
:100000004006002001010008750D0008F90B0008EA
:10001000710D00087B060008171F00080000000093
:10002000000000000000000000000000E9100008CF
:100030008108000800000000590F0008FD110008A9
:100040001B0100081B0100081B0100081B01000820
:100050001B0100081B0100081B0100081B01000810
:100060001B0100081B0100081B0100081B01000800
:100070001B0100081B0100081B0100081B010008F0
:100080001B0100081B0100081B0100081B010008E0
:100090001B0100081B0100081B0100081B010008D0
:1000A0001B0100081B0100081B0100081B010008C0
:1000B000691500081B0100081B0100081B0100084E
:1000C0001B0100081B0100081B0100081B010008A0
:1000D0001B010008891C00081B0100081B01000807
:1000E0001B0100081B0100081B010008DFF80CD0F1
:1000F00000F060F900480047C91F000840060020D2
:100100000648804706480047FEE7FEE7FEE7FEE7B1
:10011000FEE7FEE7FEE7FEE7FEE7FEE70112000866
:10012000ED00000840EA01039B0703D009E008C97D
:10013000121F08C0042AFAD203E011F8013B00F8AC
:10014000013B521EF9D27047F0B480EA0102D40F8D
:100150004200B2EB410F02D20246084611464A0065
:1001600042D0C30DDDB2C1F3C752AD1A202D35DA2E
:10017000C1F3160141F4000204B15242C5F1200658
:1001800002FA06F12A411044B3EBD05F23D0C4B188
:10019000012DA0EBC35009DCF0BC4FF0004202EA95
:1001A000C352DBB200F5000000F0D5B8400000F10A
:1001B000807000EBC350A0F1807040EAD17049001C
:1001C00009E0490841EAC071A0EBC35000F5000006
:1001D000400800EBC350F0BC00F0B4B8614201220B
:1001E00002EB4101001BF6E7F0BC704781F00041D3
:1001F000AAE780F00040A7E780EA010210B502F00C
:100200000043400022D04A001FD0010E01EB1261D2
:10021000C0F35600C2F3560240F4000042F400025C
:10022000A0FB022000047F39140400D0401C50EAD7
:10023000124001D44000491EC2B20C0604EBD0109B
:10024000401C4008802A02D003E0002010BD20F0AE
:100250000100002900DA0020184310BD30B480EA04
:10026000010202F0004530F0004221F0004013D0BE
:1002700090B1C30DD40DC2F31601C0F31600E41AF9
:1002800041F4000140F400027D34914201D3641C2A
:1002900000E04900002C02DA30BC002070474FF427
:1002A00000000023914201D3891A034340084FEA1A
:1002B0004101F7D151B1914202D14FF0004105E027
:1002C00002D24FF0010101E06FF0010103EBC450D5
:1002D000284430BC00F036B8C10F80EAE070084412
:1002E000CA079623002100F036B896230022114653
:1002F00000F031B820F00040C10DC0F3160040F40A
:1003000000007F2901DA00207047962903DCC1F143
:100310009601C8407047963988407047002801DB35
:10032000C0F10040002901DBC1F10041814270476A
:10033000002801DBC0F10040002901DBC1F10041D0
:10034000884270470029A8BF7047401C490008BF79
:1003500020F00100704710B4B0FA80FC00FA0CF0F5
:1003600050EA010404BF10BC704749B1CCF120042D
:1003700021FA04F411FA0CF118BF012121430843BA
:10038000A3EB0C01CB1D4FEA00614FEA102042BFE6
:10039000002010BC704700EBC35010440029A4BFDC
:1003A00010BC7047401C490008BF20F0010010BC81
:1003B00070470000064C074D06E0E06840F001037E
:1003C00094E8070098471034AC42F6D3FFF792FE4A
:1003D00094230008B423000800B591B001214FF424
:1003E000017000F0F7FD0121084600F0C3FD4FF455
:1003F000004000F0B3FD0620ADF8000000208DF8AD
:10040000030069462F4800F07FFA2F4800F074F986
:100410002E4806902E480790002008900220099050
:1004200000200A9080200B90C0000D9080100C904E
:1004300020200E9000020F900020109006A9224864
:1004400000F000FA0121204800F04AF901211F487C
:100450004C3800F04AF81D484C3800F051F80020A4
:10046000019001208DF808008DF809004FF46020FC
:1004700003900020049002208DF8140001A9134875
:100480004C3800F06BF80323012211460F484C381A
:1004900000F08CF80323022211460C484C3800F07F
:1004A00085F8012109484C3800F014F8012107486B
:1004B0004C3800F01AF8012104484C3800F0D2F80A
:1004C00011B000BD00080140080002404C2401406A
:1004D0004C00002021B1826842F00102826003E0FA
:1004E000826822F001028260704721B1826842F482
:1004F0008072826003E0826822F4807282607047BA
:1005000010B504461248844208D10121401500F07C
:1005100071FD0021601500F06DFD17E00D4884426B
:1005200008D10121001500F065FD0021201500F023
:1005300061FD0BE00848844208D10121C80300F0A6
:1005400059FD00214FF4004000F054FD10BD0000A3
:100550000024014000280140003C014030B5024623
:100560000020002350680F4C20400D790C6844EAAD
:1005700005242043506090680B4C2040D1E9025480
:100580002C434D7944EA450420439060D06A20F41E
:1005900070000C7C641EE4B2234340EA0350D06236
:1005A00030BD0000FFFEF0FFFDF7F1FFF0B504469F
:1005B0000D4600200021092D11DDE068A5F10A0695
:1005C00006EB4607072606FA07F18843A5F10A0657
:1005D00006EB460603FA06F10843E0600CE02069EA
:1005E00005EB4507072606FA07F1884305EB4506A4
:1005F00003FA06F108432061072A0FDA606B561EE2
:1006000006EB86071F2606FA07F18843561E06EBFF
:10061000860605FA06F10843606322E00D2A0FDA28
:10062000206BD61F06EB86071F2606FA07F18843C4
:10063000D61F06EB860605FA06F10843206310E094
:10064000E06AA2F10D0606EB86071F2606FA07F1FF
:100650008843A2F10D0606EB860605FA06F108436B
:10066000E062F0BD21B1826842F4A002826003E042
:10067000826822F4A0028260704700BFFEE700009B
:1006800010B50221154800F013FA08B9022010BD78
:100690004FF48061114800F00BFA08B90320F6E727
:1006A0004FF480510D4800F003FA08B90420EEE73A
:1006B00002210A4800F0FCF901280CD18102074808
:1006C00000F0F6F938B94FF48051044800F0F0F921
:1006D00008B90120DBE70020D9E70000000C014049
:1006E00021B1026842F00102026004E002684FF6A4
:1006F000FE731A400260704701684FF6FE721140A7
:1007000001600021016041608160C1604B49884205
:1007100008D14A490839496841F00F01474A083A67
:1007200051608AE045491431884208D1434908396B
:10073000496841F0F001414A083A51607DE03F4983
:100740002831884208D13D490839496841F470612F
:100750003A4A083A516070E038493C31884208D141
:1007600036490839496841F47041344A083A5160C1
:1007700063E032495031884208D13049083949682C
:1007800041F470212D4A083A516056E02B496431FA
:10079000884208D129490839496841F47001274A3B
:1007A000083A516049E025497831884208D1234907
:1007B0000839496841F07061204A083A51603CE0CC
:1007C0001F49884206D1011F096841F00F01021F2D
:1007D000116032E01A491431884208D11849091FC2
:1007E000096841F0F001164A121F116025E0144912
:1007F0002831884208D11249091F096841F4706103
:100800000F4A121F116018E00D493C31884208D18F
:100810000B49091F096841F47041094A121F116010
:100820000BE007495031884207D10549091F096883
:1008300041F47021024A121F116070470800024003
:100840000804024010B50022026847F6F0739A438C
:100850000C6A8B6823430C6923434C6923438C69DE
:100860002343CC6923434C6A23438C6A23431A43B2
:100870000260CB6843600B6883604B68C36010BD47
:100880007047000070B505460C46A20029460C488A
:10089000FFF748FC00200A4A02F824000021A000CB
:1008A000401C11548021A000801C11547F21A00005
:1008B000C01C1154A000011D104601F029FA70BDA2
:1008C0004001002010B50446FFF7DAFE0D4908602C
:1008D000ACB1012C13D0601E0968884201DA0220F5
:1008E00010BD601E07490968884201D10020F7E762
:1008F000601E04490968884201DD0120F0E70020FC
:10090000EEE700002C0000202DE9F0410246002512
:100910000026002000230024002791F803C00CF0DB
:100920000F0591F803C00CF0100CBCF1000F03D0C0
:1009300091F802C04CEA050591F800C0BCF1000F27
:1009400031D0146800202BE04FF0010C0CFA00F3BA
:10095000B1F800C00CEA03069E4220D183004FF09C
:100960000F0C0CFA03F7BC4305FA03FC4CEA040431
:1009700091F803C0BCF1280F06D14FF0010C0CFA1E
:1009800000FCC2F814C00AE091F803C0BCF1480FA3
:1009900005D14FF0010C0CFA00FCC2F810C0401C4D
:1009A0000828D1D31460B1F800C0BCF1FF0F34DDCA
:1009B000546800202EE000F1080C4FF0010808FAFE
:1009C0000CF3B1F800C00CEA03069E4221D183006B
:1009D0004FF00F0C0CFA03F7BC4305FA03FC4CEA8A
:1009E000040491F803C0BCF1280F05D100F1080CF4
:1009F00008FA0CF8C2F8148091F803C0BCF1480F53
:100A000007D100F1080C4FF0010808FA0CF8C2F801
:100A10001080401C0828CED35460BDE8F08100004F
:100A2000F0B50A46002300240021002500F000460E
:100A3000B6F1004F02D11D4EF16901E01B4E716805
:100A4000C0F3034583B200F44016B6F5401F08D149
:100A500021F07061154E766826F07066134F7E6047
:100A600012E000F48016B6F5801F06D1032606FAC0
:100A700005F4A14341F0706106E0460D360103FA2A
:100A800006F6B14341F0706122B1460D360103FA1A
:100A900006F6314300F00046B6F1004F02D1034E96
:100AA000F16101E0014E7160F0BD00000000014005
:100AB0000246002093680B400BB1012000E00020AB
:100AC000704701617047000070B51548016815480E
:100AD000FFF792FB054614490888FFF706FC064617
:100AE0001249FFF789FB04462946FFF72DFB0C4905
:100AF00008600D494888FFF7F8FB06460C49FFF7E8
:100B000075FB05464FF00041FFF776FB04460949A7
:100B1000FFF772FB084908600148006870BD0000DB
:100B200050000020A4707D3F4C0000207039073732
:100B300000300E4555A4C23B4400002070B5294842
:100B40000068401C27490860084600680A21B0FB7D
:100B5000F1F201FB12002349086008460068D0B991
:100B600021480088A0F500402049214A126841F838
:100B700022001F480068401C1D49086008460068A4
:100B80000A2190FBF1F201FB1200194908604FF4B1
:100B900000401549088015490968144A52681144F3
:100BA000124A92681144114AD26811440F4A1269DC
:100BB00011440E4A526911440C4A926911440B4A7D
:100BC000D2691144094A126A1144084A526A8818C3
:100BD000FFF782FB05460749FFF70EFB0446204658
:100BE00070BD0000540000202404004018010020C3
:100BF000580000200000164100BFFEE708B50121A3
:100C00000C2000F0E7F94FF48050ADF800004820C8
:100C10008DF8030069460748FFF776FE4AF60400A0
:100C2000ADF8000048208DF8030069460248FFF740
:100C30006BFE08BD00080140000C014010B50446E1
:100C400014B101203949087038480078002849D08B
:100C50004FF480513648FFF72BFFB0B104213548DF
:100C6000FFF726FF88B14FF400613248FFF720FFFD
:100C700058B14FF400512F48FFF71AFF28B14FF435
:100C800000412C48FFF714FF60BB0A2001F076F901
:100C90000020264908704FF480512548FFF708FFCF
:100CA00008B9012010BD04212248FFF701FF08B94F
:100CB0000220F7E74FF400611E48FFF7F9FE08B97C
:100CC0000320EFE74FF400511A48FFF7F1FE08B98F
:100CD0000420E7E74FF400411648FFF7E9FE10BB98
:100CE0000520DFE74FF480511148FFF7E1FE0128AE
:100CF00019D104210F48FFF7DBFE012813D1C102EF
:100D00000C48FFF7D5FE01280DD141030948FFF734
:100D1000CFFE012807D1C1030648FFF7C9FE01280D
:100D200001D1024908700020BCE700005C000020EF
:100D300000080140000C014008B50121042000F02A
:100D400049F94FF40060ADF8000010208DF8030061
:100D500003208DF8020069460448FFF7D5FD4FF4E3
:100D600000610248FFF7ADFE08BD00000008014029
:100D700000BFFEE77047000070B5002100230F227E
:100D8000C47804B3154C246804F4E064C4F5E0644A
:100D9000210AC1F10403CA40447804FA03F18478BB
:100DA0001440214309010E4C0678A155047804F043
:100DB0001F050124AC4005786D11AD0005F1E0255B
:100DC000C5F8004109E0047804F01F050124AC4097
:100DD000044D0678761145F8264070BD0CED00E014
:100DE00000E400E080E100E02DE9FC5F04460E46EF
:100DF00031462068FFF7FAF9054628466169FFF792
:100E0000F5F90090E16AFFF7F1F98346A16AFFF76F
:100E10009BF98246D4E90301FFF720FA514601907D
:100E2000FFF7EAF980462946A068FFF7E5F9019047
:100E3000A169FFF7E1F982462846E16AFFF7D6F992
:100E400001906168FFF7D8F983465146FFF77CF9B6
:100E500081464146FFF778F90746E169FFF774F9E3
:100E6000E061E5626069A06228466169FFF7BEF94A
:100E700080464FF07E502169FFF7F0F981464146E8
:100E8000FFF7BAF907466169FFF75EF96061D4E9D7
:100E90000701FFF74DFA01D8206AE061616AE06955
:100EA000FFF73CFA01D8606AE061E069BDE8FC9FA9
:100EB000002242618262C262C16170472DE9F04145
:100EC00006AC94E8F01041608260C36004614FF0AA
:100ED0000008C0F81480856107624662C0F8288067
:100EE000C0F82C80C0F81CC0BDE8F0812DE9F041AD
:100EF00004464FF07C512046FFF77EF980464FF0C4
:100F00007C51FFF721F907461149FFF775F90646AD
:100F1000FFF7F0F985B229460E4800F026FE4FF0A3
:100F20007C512046FFF768F980464FF07C51FFF76F
:100F30000BF907460649FFF75FF90646FFF7DAF9AE
:100F400085B22946034800F012FEBDE8F08100009A
:100F500000006145002C0140704700000146002060
:100F6000034A506820F44040084350607047000036
:100F70000010024029B1064A52690243044B5A61EB
:100F800004E0034A52698243014B5A6170470000F2
:100F90000010024029B1064AD2690243044BDA61CB
:100FA00004E0034AD2698243014BDA6170470000D2
:100FB0000010024029B1064A12690243044B1A612B
:100FC00004E0034A12698243014B1A617047000032
:100FD0000010024029B1064A92690243044B9A610B
:100FE00004E0034A92698243014B9A617047000012
:100FF0000010024029B1064AD2680243044BDA606D
:1010000004E0034AD2688243014BDA607047000073
:101010000010024030B500210022002400232D4D95
:101020006D6805F00C0121B1042905D0082923D1F0
:1010300005E0294D056022E0274D05601FE0254DA4
:101040006D6805F47012234D6D6805F48034022537
:1010500005EB92421CB9214D554305600BE01D4D37
:101060006D6805F400351DB11C4D5543056002E067
:10107000194D5543056002E0174D056000BF00BFE4
:10108000144D6D6805F0F0010909154D6B5C05689C
:10109000DD4045600F4D6D6805F4E061090A104DB3
:1010A0006B5C4568DD4085600A4D6D6805F46051F4
:1010B000C90A0B4D6B5C4568DD40C560054D6D6828
:1010C00005F44041890B074D6B5CC568B5FBF3F532
:1010D000056130BD0010024000127A0000093D0099
:1010E0001400002024000020704710B500F002F822
:1010F00010BD00000CB5002001900090334800683E
:1011000040F480303149086000BF3048006800F486
:10111000003000900198401C0190009818B9019887
:10112000B0F5A06FF1D12948006800F4003010B18B
:101130000120009001E0002000900098012843D198
:101140002348006840F01000214908600846006804
:1011500020F0030008600846006840F002000860C4
:101160001A4840681949486008464068486008467F
:10117000406840F4806048600846406820F47C1075
:1011800048600846406840F4E81048600846006837
:1011900040F08070086000BF0C48006800F00070EC
:1011A0000028F9D00948406820F00300074948604A
:1011B0000846406840F00200486000BF03484068AD
:1011C00000F00C000828F9D10CBD0000001002400E
:1011D00000200240042808D14FF0E021096941F0C5
:1011E00004014FF0E022116107E04FF0E0210969AE
:1011F00021F004014FF0E0221161704770470000B8
:1012000010B51348006840F0010011490860084615
:101210004068104908400E494860084600680E4979
:1012200008400B4908600846006820F480200860E8
:101230000846406820F4FE0048604FF41F008860B4
:10124000FFF753FF4FF000600449086010BD000035
:10125000001002400000FFF8FFFFF6FE08ED00E07E
:10126000F0B50C46154600220021068C4FF6FE779D
:101270003E400684028B018C4FF60C7632407E1C79
:1012800006EA03162E433243104EB0420ED0104EE3
:10129000B0420BD0B0F1804F08D00E4EB04205D016
:1012A0000D4EB04202D00D4EB04206D14FF6FD7643
:1012B000314044F00106314305E04FF6F576314008
:1012C00044F00106314302830184F0BD002C01404B
:1012D000003401400004004000080040000C0040C1
:1012E000F0B50C461546002200210026078C4FF66B
:1012F000EF7C07EA0C070784028B018C4FF6FF771F
:1013000007EA041640F6FF473A404FF6FF7707EA30
:1013100003373A434FF6FF7707EA05273A43114F61
:10132000B8420ED0104FB8420BD0B0F1804F08D069
:101330000E4FB84205D00E4FB84202D00D4FB84202
:1013400006D14FF6DF77394046F01007394305E004
:101350004FF65F77394044F0100739430283018428
:10136000F0BD0000002C01400034014000040040AA
:1013700000080040000C0040F0B50C461546002265
:1013800000210026078C4FF6FF6C07EA0C07078444
:10139000828B018C4FF6FF7707EA04264FF60C7715
:1013A0003A404FF6FF7707EA03172F433A43114FAE
:1013B000B8420ED0104FB8420BD0B0F1804F08D0D9
:1013C0000E4FB84205D00E4FB84202D00D4FB84272
:1013D00006D14FF6FF57394046F48077394305E090
:1013E0004FF2FF57394044F48077394382830184B8
:1013F000F0BD0000002C014000340140000400401A
:1014000000080040000C0040F0B50C4615460022D4
:1014100000210026078C4EF6FF7C07EA0C070784A4
:10142000828B018C4FF6FF7707EA043640F6FF47C0
:101430003A404FF6FF7707EA05273A434FF6FF7722
:1014400007EA03373A43114FB8420ED0104FB84263
:101450000BD0B0F1804F08D00E4FB84205D00E4FE0
:10146000B84202D00D4FB84206D14DF6FF77394051
:1014700046F48057394305E047F6FF57394044F4B6
:101480008057394382830184F0BD0000002C014065
:10149000003401400004004000080040000C0040FF
:1014A00030B589B004460D460121C802FFF792FD10
:1014B00001210420FFF78EFD4FF44070ADF82000AD
:1014C00018208DF8230003208DF8220008A9244855
:1014D000FFF71AFAADF81840ADF814500020ADF837
:1014E0001A00ADF8160005A91E4800F071FB602037
:1014F000ADF804000120ADF80600204604EBD071E1
:10150000C1F34F01ADF80A100020ADF80C0001A99D
:10151000144800F075FA7020ADF804000120ADF811
:1015200006000020ADF80A00ADF80C0001A90D4836
:1015300000F0BCFA01210B4800F0C5F80821094869
:1015400000F0AAFA0821074800F002FB0121054833
:1015500000F09EF80121034800F0A9F809B030BD61
:1015600000080140002C014010B50121880700F05F
:10157000CEF928B100F038FE0121880700F094F878
:1015800010BD7FB505460C4601210846FFF702FD58
:10159000ADF80850ADF804400020ADF80A00ADF8F1
:1015A000060001A94FF0804000F012FB0122114615
:1015B000900700F01CFA1C208DF8000000208DF828
:1015C00001008DF8020001208DF803006846FFF746
:1015D000D3FB0121880700F06AF87FBD00B587B012
:1015E00001210420FFF7F6FC4020ADF8180004208C
:1015F0008DF81B0003208DF81A0006A92248FFF77A
:1016000083F98020ADF8180004208DF81B0003201A
:101610008DF81A0006A91C48FFF776F9012102206F
:10162000FFF7B8FC194800F05DF803A800F022FBB2
:101630000020ADF80C004FF6FF70ADF81000002050
:10164000ADF81200ADF80E0003A9104800F0C0FA82
:1016500000231A4603210D4800F038F9684600F0CF
:10166000BDF90020ADF808006946084800F060F9AF
:101670004FF40041054800F07CFA0121034800F0D6
:1016800016F807B000BD000000080140000400404B
:1016900021B1028842F08002028004E002884FF605
:1016A0007F731A4002807047CA430282704721B19B
:1016B000028842F00102028004E002884FF6FE73C5
:1016C0001A400280704731B1B0F8442042F4004221
:1016D000A0F8442005E0B0F84420C2F30E02A0F8C0
:1016E0004420704710B504466848844208D101215F
:1016F000C014FFF77FFC0021E014FFF77BFCC4E07F
:10170000B4F1804F08D101210846FFF753FC0021B6
:101710000120FFF74FFCB8E05D48844208D1012169
:101720000220FFF747FC00210220FFF743FCACE05A
:101730005848844208D101210420FFF73BFC0021D6
:101740000420FFF737FCA0E05348844208D1012170
:101750000820FFF72FFC00210820FFF72BFC94E066
:101760004E48844208D101211020FFF723FC0021BC
:101770001020FFF71FFC88E04948844208D101216E
:101780002020FFF717FC00212020FFF713FC7CE04E
:101790004448844208D101214014FFF72BFC00216A
:1017A0006014FFF727FC70E03F48844209D1012113
:1017B000C804FFF71FFC00214FF40020FFF71AFCBC
:1017C00063E03A48844209D101210805FFF712FC81
:1017D00000214FF48010FFF70DFC56E0344884429E
:1017E00009D101214805FFF705FC00214FF4001045
:1017F000FFF700FC49E02F48844208D10121402036
:10180000FFF7D8FB00214020FFF7D4FB3DE02A483A
:10181000844208D101218020FFF7CCFB00218020E9
:10182000FFF7C8FB31E02548844208D1012180152B
:10183000FFF7C0FB0021A015FFF7BCFB25E0204807
:10184000844209D101210804FFF7D4FB00214FF4A1
:101850008030FFF7CFFB18E01A48844209D10121FC
:101860004804FFF7C7FB00214FF40030FFF7C2FB2D
:101870000BE01548844208D101218804FFF7BAFB28
:1018800000214FF48020FFF7B5FB10BD002C014074
:101890000004004000080040000C00400010004020
:1018A0000014004000340140004C01400050014051
:1018B0000054014000180040001C0040002000407F
:1018C000004001400044014000480140F0B50C4692
:1018D00015461E460021002200230189028B038C3D
:1018E0004FF6F877394021434FF6FC473A4040F233
:1018F00001173A434FF6DD773B404FF6FF7707EA93
:1019000006172F433B43018102830384F0BD30B5AA
:101910000246002000230024158A05EA0103958968
:1019200005EA010413B10CB1012000E0002030BD34
:1019300070B505460C46244885420ED023488542A2
:101940000BD0B5F1804F08D02148854205D0214801
:10195000854202D02048854200D100E000BF2088A7
:1019600050B92389A28861882846FFF779FCE1886D
:10197000284600F000F925E0208804280AD12389B0
:10198000A28861882846FFF7ABFCE188284600F072
:10199000FBF817E0208808280AD12389A2886188EB
:1019A0002846FFF7E9FCE188284600F0FAF809E04C
:1019B0002389A28861882846FFF726FDE18828460A
:1019C00000F0F8F870BD0000002C01400034014028
:1019D0000004004000080040000C0040002101808D
:1019E0004180012181800021C180018170471AB1AD
:1019F00083890B43838102E083898B438381704712
:101A000070B5002400220023058C4FF6FE76354089
:101A10000584028C8388048B4FF68F752C40B51E8D
:101A20002C400D882C43751E2A400D892A434D8871
:101A30002A43144DA8420BD0134DA84208D0134D91
:101A4000A84205D0124DA84202D0124DA84213D18F
:101A50004FF6F7752A404D892A434FF6FB752A4009
:101A60008D882A434FF6FF652B404FF6FF552B40DC
:101A70008D892B43CD892B4383800483CD88858634
:101A8000028470BD002C0140003401400040014040
:101A900000440140004801400A460021018B4FF6F6
:101AA000F7731940114301837047000070B500249B
:101AB00000220023058C4FF6EF7635400584028C1A
:101AC0008388048B48F6FF752C404FF6FF452C4069
:101AD0000D884FF6FF7606EA05252C434FF6DF7595
:101AE0002A400D8906EA05152A434D8806EA0515A0
:101AF0002A43154DA84202D0144DA8421DD14FF6DD
:101B00007F752A404D894FF6FF7606EA05152A4370
:101B10004FF6BF752A408D8806EA05152A434FF611
:101B2000FF352B404FF2FF752B408D8906EA850566
:101B30002B43CD8906EA85052B4383800483CD881A
:101B40000587028470BD0000002C01400034014074
:101B50000A460021018B4FF2FF7319404FF6FF73C5
:101B600003EA022319430183704781867047018786
:101B7000704781847047028B4FF6F3731A400283DB
:101B8000028B0A4302837047028B4FF2FF331A40E5
:101B90000283028B4FF6FF7303EA01231A43028389
:101BA0007047828B4FF6F3731A408283828B0A430D
:101BB00082837047828B4FF2FF331A408283828B7D
:101BC0004FF6FF7303EA01231A4382837047000034
:101BD000002202881D4B98420ED01D4B98420BD01C
:101BE000B0F1804F08D01B4B984205D01A4B984259
:101BF00002D01A4B984204D14FF68F731A404B888B
:101C00001A43174B984207D0164B984204D04FF610
:101C1000FF431A40CB881A4302808B8883850B8848
:101C200003850A4B98420BD0094B984208D00E4BC3
:101C3000984205D00D4B984202D00D4B984201D1ED
:101C40000B7A03860123838270470000002C014039
:101C5000003401400004004000080040000C004037
:101C600000100040001400400040014000440140CA
:101C7000004801404FF6FF71818000210180C18042
:101C8000418001727047000010B540F225511D4897
:101C900000F080F810B31B4800F038F9C4B21A48BD
:101CA000008800F40040C8B91748008800F480405C
:101CB00060B10A2C03D000201349088020E01248AC
:101CC000008840F400401049088019E00D2C06D12E
:101CD0000D48008840F480400B49088010E00A4815
:101CE0000088C0F30D0009490C5407480088401CC7
:101CF0000549088008460088C72801DD00200880C3
:101D000010BD000000380140680000207201002072
:101D100070B505460E46002440210C4800F018F826
:101D200000BF0FE0285D0949091D088000BF402160
:101D3000064800F022F80028F9D04021034800F0BE
:101D400007F8641CB442EDD370BD000000380140B8
:101D500001F40072B2F5007F00D100BFCA430280D7
:101D6000704721B1828942F40052828104E0828965
:101D70004DF6FF731A408281704702460020B1F58C
:101D8000007F00D100BF13880B400BB1012000E0A1
:101D90000020704770B50246002400230025002073
:101DA00040F66A16B14200D100BFC1F3421501F0FE
:101DB0001F03012606FA03F3012D02D19689334051
:101DC00006E0022D02D1168A334001E0968A3340A4
:101DD0000C12012606FA04F41688344013B10CB133
:101DE000012000E0002070BDF0B50346002400266D
:101DF0000025002040F66A17B94200D100BF1846FE
:101E0000C1F3421401F01F06012707FA06F5012C61
:101E100001D10C3004E0022C01D1103000E014306C
:101E20001AB107682F43076002E00768AF430760F5
:101E3000F0BD00002DE9F04786B005460E460024AF
:101E4000A24600BFA1460027B08900B100BF2F46BF
:101E50002C8A4CF6FF700440F08804432C82AC8935
:101E60004EF6F3100440B088318908437189084365
:101E70000443AC81AC8A4FF6FF400440B089044370
:101E8000AC8201A8FFF7C6F81F48874202D1DDF8EF
:101E900010A001E0DDF80CA0A88900F4004040B1DA
:101EA0000AEBCA0000EB0A1031684900B0FBF1F8F8
:101EB00007E00AEBCA0000EB0A1031688900B0FBAA
:101EC000F1F86420B8FBF0F004012009642101FB63
:101ED0001089A88900F4004040B1322000EBC9000D
:101EE000B0FBF1F000F00700044308E0322000EB03
:101EF00009106421B0FBF1F000F00F0004432C81C5
:101F000006B0BDE8F087000000380140014688882F
:101F1000C0F30800704700BFFEE702E008C8121FC8
:101F200008C1002AFAD170477047002001E001C1C2
:101F3000121F002AFBD1704710B56FF00400FFF7A5
:101F400049F90A4800680A49B0FBF1F009490870EC
:101F50000846007800EB4001C1EBC0104FF6FF715E
:101F600001EAC0000449088010BD00000000002004
:101F700000127A005E000020600000200146114A35
:101F800012884A434FF0E0235A6100229A611A46B0
:101F9000126942F001021A6100BF4FF0E02210699D
:101FA00000F001021AB100F48032002AF5D04FF09F
:101FB000E022126922F001024FF0E0231A610022B0
:101FC0009A6170476000002086B0FFF7B5FF4FF4BC
:101FD000E13000F089F9FEF7FFF9FFF7FFFA002082
:101FE0006E496F4A6F4BCDE90310CDE90132009085
:101FF0000346024601466C48FEF760FF00206B492D
:102000006B4A684BCDE90310CDE901320090694B72
:10201000694A01466948FEF751FF00206349644A56
:10202000604BCDE90310CDE90132009003464FF03B
:102030007E5201466248FEF741FF002140F60F60E4
:10204000FFF72EFA0A2141F61F40FFF79AFAFEF732
:1020500073FEFEF7D3FD9FE00120FFF78FFF594885
:102060000068594908605048006848605348006853
:10207000886056480068C86055480068086155483F
:10208000006848614E480068886107214E48FEF7A5
:10209000F9FB0020FEF7D2FD4F49086008460068B2
:1020A000012819D14D480078401C4C490870087827
:1020B000C11700EB91718910A0EB8101474A1170A3
:1020C00000213E48FEF7F4FE00213748FEF7F0FEFF
:1020D00000203C49086023E03F48006802280BD0FC
:1020E0003D480068032807D03B480068042803D017
:1020F00039480068022813D137480068FEF7E2FB30
:1021000001280DD034480068FEF7DCFB022807D018
:1021100031480068FEF7D6FB10B900202C49086052
:102120002E48007818B901202D4908602FE02B486F
:102130000078012803D100202949086027E02748BA
:102140000078022810D127480088B0F5FA7F1EDBFE
:102150002348006808B9012000E0002020490860F9
:1021600000202049088012E01C48007803280ED186
:102170001C48008864280ADB1948006808B9012057
:1021800000E0002016490860002016490880154824
:102190000088401C134908805EE7000000409C4511
:1021A00000409CC56F12833A9C00002048E17A3FB2
:1021B00048E17ABFE17ADC40CDCC24416C000020BC
:1021C000CC00002040000020FC0000203400002053
:1021D0003C00002044000020300000204800002087
:1021E000AC0121424A00002010B5FEF7A7FC80F0A8
:1021F00000403149086031492F480068FDF7FCFF75
:1022000004462F4801682046FDF79EFF2C490860D0
:10221000FEF75AFC2B4908602B48007818B90020BB
:102220002A49086043E02848007801280BD1284952
:1022300024480068FDF7DAFF04462649FDF7DCFF75
:102240002249086033E020480078022812D1204952
:102250001C480068FDF7CAFF04461F49FDF7CCFF84
:102260001E490860144801681C48FEF7BDFD174967
:1022700008601CE014480078032818D1144911485C
:102280000068FDF7B3FF04461549FDF7B5FF154992
:1022900008600B4801681348FEF7A6FD0F49086067
:1022A000054801680D48FEF79FFD0849086007488A
:1022B0000068FEF71BFE10BD34000020FE9CDB38DA
:1022C0004000002038000020480000203C00002092
:1022D0003333D33FD1229B3E001055456C00002084
:1022E000000048429C00002010B586B00446012141
:1022F00044F20800FEF76EFE01210846FEF76AFE72
:1023000001210420FEF78CFB4020ADF814000320CF
:102310008DF8160018208DF8170005A91B48FEF748
:10232000F3FA8020ADF8140004208DF8170005A9F9
:102330001648FEF7E9FA25208DF8000003208DF8F5
:1023400001008DF8020001208DF803006846FEF7B9
:1023500013FD01940020ADF80800ADF80A00ADF8B7
:102360000C00ADF810000C20ADF80E0001A90848D3
:10237000FFF760FD012240F225510548FFF734FDCB
:1023800001210348FFF7EDFC06B010BD000C014031
:1023900000380140B4230008000000206C00000059
:1023A0001A1F0008202400086C000020D40500003B
:1023B0002A1F000800A24A040000000000000000DC
:1023C00001020304060708090000000001020304DB
:1023D00001020304060708090204060800000000C1
:1023E00000000000000000000000000000000000ED
:1023F00000000000000000000000000000000000DD
:1024000000000000000000000000000000000000CC
:1024100001000000000000000000000000000000BB
:04000005080000ED02
:00000001FF
